:020000040800F2
:1000000000500020895E0008CD5E0008CD5E00082B
:10001000CD5E0008CD5E0008CD5E00080000000047
:10002000000000000000000000000000CD5E00089D
:10003000CD5E000800000000CD5E0008CD5E000827
:10004000CD5E0008CD5E0008CD5E0008CD5E0008E4
:10005000CD5E0008CD5E0008CD5E0008CD5E0008D4
:10006000CD5E0008CD5E0008CD5E0008CD5E0008C4
:10007000CD5E0008CD5E0008CD5E0008CD5E0008B4
:10008000CD5E0008CD5E0008CD5E0008CD5E0008A4
:10009000CD5E0008CD5E0008CD5E0008CD5E000894
:1000A000CD5E0008CD5E0008CD5E0008CD5E000884
:1000B000CD5E0008CD5E0008CD5E0008CD5E000874
:1000C000CD5E0008CD5E0008CD5E0008CD5E000864
:1000D000CD5E0008CD5E0008CD5E0008CD5E000854
:1000E000CD5E0008CD5E0008CD5E00080000000077
:1000F0000000000000000000000000000000000000
:0C01000000000000000000005FF808F1A3
:1001100040B2000800000020080000200800002075
:10012000CC4E0020274B1A6822F480321A601A68DD
:1001300022F480221A601A6842F480321A6040F673
:10014000FF721968880305D4013AFAD1012070477B
:10015000002070471C4A116821F0100111601168DD
:1001600041F010011160116821F003011160116864
:1001700041F0020111605968144A0A4042F4E81241
:1001800042F480625A601A6842F080721A6040F647
:10019000FF721968890103D4013AFAD1022070472D
:1001A0005A6822F0030242F002025A6040F6FF72DF
:1001B000596801F00C010829CAD0013AF8D103208E
:1001C000704700BF00100240002002400FC0C2FF75
:1001D00008B5FFF7A7FF12498B6943F008038B614D
:1001E000104B1A6822F0704242F040521A601A68AE
:1001F00022F0706242F040721A601A6822F47002B3
:1002000042F440121A608B69074A43F004038B6181
:10021000536823F00F0343F00403536008BD00BF8D
:1002200000100240000C0140000801402DE9F74F8A
:10023000FC4EFD4DA6F1100406F1300706F1200832
:100240002B4632462146384604F0D0FB05F1100318
:1002500032464146204606F1100404F0C7FB05F182
:10026000200332462146404604F0C0FB05F130032E
:1002700032463946204606F5176404F0B7FBA4F56C
:100280009C6105F140032246A1F1D00004F0AEFBD1
:1002900004F12002A2F59E6106F5A46905F1500360
:1002A00001F5826004F0A2FB05F16003A4F5906201
:1002B000494609F5307004F099FB04F11002A2F1EF
:1002C000E00105F17003A1F5826004F08FFBA4F555
:1002D000307202F1200106F59A6A05F18003A1F55A
:1002E000AE6004F083FB0AF1100105F19003524661
:1002F00001F5107004F07AFBA4F5F462A2F170012C
:1003000005F1A00301F5AE6004F070FBA4F5926264
:10031000A2F1700105F1B003A1F1500004F066FBF9
:10032000A4F5247205F1C003A2F11001484604F0BF
:100330005DFBA4F58E62A2F5C07105F1D00301F159
:10034000E00004F053FB06F5F87202F5707105F158
:10035000E003A1F56C7004F049FB06F52862A2F5F4
:10036000086105F1F00301F54C7004F03FFB06F560
:10037000087202F1100105F5807301F5587004F060
:1003800035FB06F52662A2F5A46105F58873A1F593
:10039000447004F02BFB06F51C7202F5687105F53C
:1003A0009073A1F5647004F021FB06F52462A2F5B8
:1003B000F86105F5987301F5587004F017FB06F520
:1003C000287202F1100105F5A07301F55C7004F0CC
:1003D0000DFB06F52962A2F5986105F5A873A1F554
:1003E000487004F003FB06F5347202F1100105F5C4
:1003F000B07301F5547004F0F9FA06F52762A2F51E
:10040000A26105F5B873A1F5207004F0EFFA06F5C6
:10041000407202F5507105F5C073A1F54C7004F0FF
:10042000E5FA06F52562A2F5E86105F5C87301F560
:10043000187006F5096704F0D9FA06F5156805F590
:10044000D073A4F59C62214604F1100004F0CEFAAA
:1004500005F5D8733A4607F1A001404604F0C6FA04
:10046000A4F59A6205F5E07302F59E61204604F05A
:10047000BDFA05F5E8733A464146A8F1100004F0CC
:10048000B5FA05F5F073A4F14002394607F1100002
:1004900004F0ACFAA4F1300205F5F873A2F1900172
:1004A000384606F5E66704F0A1FA05F50073A4F5F1
:1004B00090623946A7F50C7004F098FA06F5F06BD7
:1004C00005F50473A4F5906206F59861384604F0CA
:1004D0008DFA05F50873524659460BF1500004F0A9
:1004E00085FA04F18002A2F5C66105F50C7301F5E9
:1004F000A26004F07BFAA4F5BA62A2F50C7105F5CE
:10050000107301F5AE6004F071FAA4F5006202F513
:10051000647105F51473A1F1A00004F067FAA4F565
:10052000B86202F5407105F51873A1F5AA6004F0F0
:100530005DFAA4F5016202F5447105F51C7301F141
:10054000700004F053FAA4F59A62A2F1E00105F5F7
:10055000207301F5A46004F049FAA4F5B66105F52D
:100560002473224601F1E00004F040FA06F502642B
:1005700006F5587205F5287302F5CE61204604F0A1
:1005800035FA05F52C7306F55472214604F5D07042
:1005900004F02CFA06F1500706F5B06206F58A64FD
:1005A00006F5866805F53073A2F5D071384604F07B
:1005B0001DFA05F534732246414608F5187004F01B
:1005C00015FA05F5387306F5B062394607F5687017
:1005D00006F5886704F00AFA05F53C733A4607F514
:1005E0000C71404604F002FA06F5126205F54073FC
:1005F000A2F5A46106F5236004F0F8F906F592620D
:1006000002F5886105F54473A1F5A26004F0EEF9E6
:100610000BF1100105F548735A46A1F5207004F05E
:10062000E5F903E0A89800082882000806F52B6188
:1006300005F54C7306F5EE62A1F5D66004F0D6F927
:1006400006F5216105F5507306F51162A1F5AC6060
:1006500004F0CCF906F51E6B05F5547352460AF505
:10066000147106F5647004F0C1F905F5587342463B
:100670005946384604F0BAF905F55C7342462146FE
:1006800006F5F868584604F0B1F905F560733A4686
:100690004146A8F5B07004F0A9F905F5647306F5B4
:1006A000CE62394607F5B26004F0A0F905F568732B
:1006B000224604F50C71404604F098F906F5D26222
:1006C00005F56C7302F54C71204606F55C7B04F071
:1006D0008DF906F5E87205F5707302F52471584638
:1006E00004F084F906F58C62A2F5247105F57473A3
:1006F000A1F1600004F07AF905F5787306F5E87267
:1007000059460BF5807004F071F906F58E62A2F57A
:10071000447106F5826405F57C7301F1700004F004
:1007200065F9A4F56C7106F5CA6705F58063224684
:1007300001F5846004F05AF905F582633A4607F53D
:10074000C871484604F052F904F59862A2F5886130
:1007500005F5846301F5587004F048F904F5387222
:10076000A2F5187105F5866301F5B07004F03EF945
:1007700004F59A62A2F1E00105F58863A1F55870CD
:1007800004F034F904F53C72A2F5807105F58A6332
:10079000A1F5B07004F02AF904F5A06205F58C63A8
:1007A000A2F58C6106F5F66004F020F904F5BC6250
:1007B000A2F5887105F58E63A1F5A46004F016F921
:1007C00004F5A262A2F5D87105F59063A1F55C70FD
:1007D00004F00CF904F1E00202F53C7105F59263B6
:1007E000A1F1A00004F002F905F5946352460AF560
:1007F0004071484604F0FAF80AF5E87105F5966389
:100800005246A1F5E07004F0F1F8A4F52C7202F55F
:10081000607105F59863A1F5987004F0E7F804F1AC
:10082000D002A2F5487105F59A6301F5F87006F556
:10083000D86804F0DBF804F1E00205F59C6302F1EE
:100840001001404604F0D2F805F59E634A46A9F12E
:100850003001404604F0CAF8A4F5287202F50C7184
:1008600005F5A06301F5B07004F0C0F804F1F002E2
:10087000A2F5B07105F5A263A1F5E07004F0B6F839
:1008800004F5807105F5A4632246A1F5966004F095
:10089000ADF805F5A6633A46494609F52C7004F013
:1008A000A5F805F5A86304F52872494609F5D8703E
:1008B00004F09CF805F5AA634A4609F5C071504654
:1008C00004F094F8A4F5047202F1100105F5AC638C
:1008D00001F5487004F08AF8A4F5F07202F544714D
:1008E00005F5AE63A1F5407004F080F806F5AA6244
:1008F00002F5E07105F5B063A1F5D66004F076F875
:1009000004F5807202F5207105F5B263A1F5E66089
:1009100004F06CF8A4F5987205F5B46302F5207143
:1009200006F53C7004F062F806F5487105F5B6630B
:10093000A4F5807201F5147004F058F804F5B8724B
:10094000A2F5C87105F5B863A1F1200004F04EF8D6
:1009500004F5B872A2F5D87105F5BA6301F110007B
:1009600004F044F806F5B46A04F5C07205F5BC63FA
:10097000A2F55871504604F039F8A4F5F07205F567
:10098000BE6302F11001504606F5B86A04F02EF875
:1009900005F5C06304F5D0725146AAF5707004F0F5
:1009A00025F805F5C263A4F504725146AAF56C70EA
:1009B00004F01CF8A4F5B07205F5C46302F54871A3
:1009C00006F5307004F012F806F5247105F5C663DB
:1009D000A4F5C87201F5547004F008F805F5C86371
:1009E00004F5F07259460BF1F00003F0FFFF04F13B
:1009F0005002A2F1E00105F5CA6301F51C7003F095
:100A0000F5FF04F5F87205F5CC63A2F5C8715846F8
:100A100003F0ECFF04F1600202F5C87105F5CE6346
:100A2000A1F5F07003F0E2FF06F50F6105F5D06364
:100A300004F50072A1F5CE6003F0D8FF04F504724E
:100A400005F5D263A2F55C7106F5106003F0CEFFE8
:100A500004F5087205F5D463A2F5547106F51B6020
:100A600003F0C4FF06F51A6105F5D66304F50C72B0
:100A7000A1F5D26003F0BAFF05F5D86322463946E6
:100A8000A7F5A07003F0B2FF06F5166A05F5DA6364
:100A9000224604F17001384606F5747B06F5CC67F2
:100AA00003F0A4FF05F5DC63A4F120025146AAF58A
:100AB000407003F09BFF05F5DE63A4F12002394688
:100AC000584603F093FF06F51D6205F5E064A2F5B4
:100AD000CE61234601F5447003F088FF06F50B62F2
:100AE00002F1900105F5E26301F1500003F07EFF91
:100AF00006F5787205F5E46302F528715046CDF8E5
:100B000000A003F073FF05F5E66306F57872594619
:100B10000BF52C7003F06AFF06F51C62A2F54C7110
:100B200005F5E863A1F5507003F060FF06F50A6271
:100B300002F1E00105F5EA63A1F1500003F056FF70
:100B400006F5D66205F5EC63A2F11001484603F004
:100B50004DFF06F5E07202F5487105F5EE6301F50B
:100B6000E07003F043FF06F5E07202F59C6105F5C5
:100B7000F06301F1100003F039FF06F5D662A2F52B
:100B8000407105F5F263A1F5F87003F02FFF05F54C
:100B9000F46306F5DC624946404603F027FF05F59D
:100BA000F66306F5F0724146A8F5E07003F01EFF0B
:100BB00006F5E87202F5A06105F5F863A1F5AC60F1
:100BC00003F014FF06F5DC62A2F5AE6105F5FA63E9
:100BD00001F5AC6003F00AFF06F5F07205F5FC6361
:100BE00002F5A061404603F001FF06F5DC62A2F5C4
:100BF000A06105F5FE6301F5E07003F0F7FE06F570
:100C0000FE62A2F5587105F5006301F5187003F056
:100C1000EDFE06F5607202F55C7105F50163A1F564
:100C2000807003F0E3FE06F50062A2F5807105F521
:100C30000263A1F5187003F0D9FE06F5846202F58F
:100C4000F07105F5036301F5807006F5E26803F0C5
:100C5000CDFE06F5906205F50463A2F58461404679
:100C600003F0C4FE06F5E86205F50563A2F53071F0
:100C7000404603F0BBFE06F5076202F5C87105F5B4
:100C80000663A1F5387003F0B1FE06F59C62A2F18F
:100C9000C00105F5076301F5407003F0A7FE06F5F6
:100CA000056305F5086507F1D0060193019A2B4607
:100CB000314606F53C7003F099FE04F5C873A6F5BD
:100CC0000C723146A6F56C7003F090FE06F110022E
:100CD00004F5D073A2F52071A7F5B87003F086FE75
:100CE000A6F51C7202F52071A7F5887A04F5D87371
:100CF00001F1200003F07AFE04F5E07352460AF594
:100D00000071404603F072FE06F18002A2F54071C8
:100D100004F5E87301F5C06003F068FE04F5F073B4
:100D200006F11002414608F1500003F05FFE06F1A3
:100D3000200204F5F87302F12001404603F056FE4C
:100D400006F5F872A2F5E07104F5007301F11000E8
:100D500003F04CFE07F59078A7F5C87104F504730D
:100D60004246A1F5A07003F041FEA6F5687207F5B2
:100D7000987904F5087302F58261404603F036FE67
:100D800004F50C7352464946A9F1400003F02EFECB
:100D900004F510735246AAF59E61484603F026FEFC
:100DA00004F51473424608F12001484603F01EFE84
:100DB00004F5187306F12002494609F1200003F0FA
:100DC00015FE06F5F072A2F5B07104F51C73A1F1E1
:100DD000100003F00BFE04F520735A46394607F560
:100DE000B07003F003FE0BF57C71A7F1100907F555
:100DF000B87A04F524735A46A1F5A070A7F5A87B2C
:100E000003F0F4FD04F528735A464946504603F0B2
:100E1000EDFD04F52C735A465146404607F5C0785F
:100E200003F0E4FD04F53073A6F52C724146484604
:100E300003F0DCFDA6F52C7204F5347302F5307175
:100E4000404603F0D3FDA6F54C7202F57C7104F523
:100E5000387301F1700003F0C9FD019A04F53C7389
:100E6000A2F16001A1F5807003F0C0FDA6F520722B
:100E700002F5747104F54073A1F1800003F0B6FD32
:100E800006F5A072A2F5B87104F5447301F58070FF
:100E900003F0ACFD009A07F5E07804F5487302F121
:100EA0006001404607F5D87903F0A0FD04F54C73C6
:100EB000009A414608F5D87003F098FD04F5507388
:100EC00042464946A9F5966003F090FD04F5547337
:100ED0004246A8F59A61484603F088FDA6F5687277
:100EE00002F5946104F55873A1F1900003F07EFDC2
:100EF000A6F1100202F5887104F55C73A1F5946007
:100F000003F074FDA6F51C7202F5287104F56073F8
:100F100001F1E00003F06AFDA6F51C7104F56473AD
:100F2000324601F5607003F061FD04F56873A6F5C3
:100F30006C723146019803F059FD019904F56C7308
:100F4000A6F56C72A1F5B07003F050FD06F53C7289
:100F500004F57073A2F5E071019803F047FDA6F562
:100F6000447202F58A6104F57473A1F5A87003F068
:100F70003DFDA6F5447202F5387104F5787301F56C
:100F8000B87003F033FD06F53472A2F5C87107F5A9
:100F90000C7804F57C7301F1100003F027FDA8F52F
:100FA000247104F58063424601F5946003F01EFD50
:100FB00008F5047104F582634246A1F5966003F0DA
:100FC00015FDA6F5A07204F5846302F52C71404668
:100FD00003F00CFDA6F5A072A2F5B07104F58663CE
:100FE00001F5826003F002FD04F58863A6F59872AE
:100FF000414608F1200003F0F9FCA6F5987202F5CD
:101000002C7104F58A63A1F5826007F5187803F066
:10101000EDFC06F5607204F58C63A2F5C0614046F4
:1010200003F0E4FC04F58E6306F560724146A8F512
:10103000986003F0DBFC04F59063A6F54C72414622
:1010400008F1100003F0D2FCA6F54C7202F59A618B
:1010500004F59263A1F1E00003F0C8FCA6F520724C
:1010600004F5946302F58661404603F0BFFCA6F5E3
:10107000207202F5547104F5966301F1E00003F06B
:10108000B5FC07F5247104F59863A6F59662A1F501
:10109000CC6003F0ABFC04F59A63A6F59062A7F56B
:1010A000687107F5287003F0A1FC06F5F072A2F54F
:1010B000B87104F59C6301F1900003F097FC06F50C
:1010C000F872A2F1E00107F53C7A04F59E63A1F104
:1010D000E00003F08BFC04F5A063A6F1A0025146EA
:1010E000AAF1200003F082FC06F50072A2F5BC61B3
:1010F00004F5A26301F5507003F078FCA6F1C0027C
:1011000004F5A46302F53471504603F06FFC06F554
:101110000472A2F53471A7F50C7B04F5A663A1F562
:10112000447003F063FC04F5A863524659460BF57E
:10113000107003F05BFC04F5AA635246AAF5307107
:101140005846A7F5C26A03F051FC04F5AC63524659
:101150000099A7F51C7003F049FC04F5AE635246F4
:101160000AF56471009807F5447A03F03FFC04F532
:10117000B0634A4651460AF1200003F037FC04F5FB
:10118000B2634A4609F5B871504603F02FFCA6F544
:10119000787202F5BC6104F5B46301F1500003F00C
:1011A00025FC04F5B66306F514724946A9F5986066
:1011B00003F01CFCA6F5747202F5C66104F5B86371
:1011C000A1F1500003F012FC06F5187204F5BA63A1
:1011D000A2F5C661484603F009FC07F5507104F515
:1011E000BC63A6F58462A1F5D06003F0FFFBA7F510
:1011F000047904F5BE63A6F58A62A7F55C7107F56C
:10120000547003F0F3FB04F5C063A6F1B002494645
:1012100009F5AE6003F0EAFB0099A7F5087B04F539
:10122000C26306F52472A1F5387003F0DFFB04F504
:10123000C4633A4607F55C71584603F0D7FB07F5DF
:10124000607A04F5C66306F528723946009803F003
:10125000CDFB04F5C86306F190025946504603F0F1
:10126000C5FB04F5CA6306F190025146484607F5EE
:10127000647903F0BBFB04F5CC6306F5D8724946EC
:10128000404603F0B3FB04F5CE6306F5D072414649
:10129000484603F0ABFB07F56C7806F5807204F561
:1012A000D06302F5E871404603F0A0FB06F5347206
:1012B000A2F5E87104F5D263A1F5887003F096FBFE
:1012C000A8F5C87104F5D4634246A1F5747007F51A
:1012D000747803F08BFB04F5D66306F588724146FB
:1012E000A8F1100003F082FB04F5D86306F53C7208
:1012F000314606F5887003F079FBA8F5C66104F560
:10130000DA63424601F58C60A7F57C7803F06EFB4A
:1013100004F5DC63424608F1100107F57870A6F584
:10132000866705F5AE6B03F061FB07F110015B46C4
:101330003A4601F5E86003F059FBA6F5A26205F50F
:10134000B06302F50461A6F5A06003F04FFBA6F5BB
:101350008C6202F5F46105F5B263A1F5F26003F069
:1013600045FBA6F5A66105F5B463A6F5A86201F5EF
:10137000086003F03BFBA6F5926202F5FE6105F5FD
:10138000B663A1F5FC6003F031FBA6F5707406F5B9
:101390005C7205F5B863A2F59461204603F026FB64
:1013A00005F5BA6306F55C72214604F5207003F07A
:1013B0001DFB06F1200202F1600105F5BC6301F599
:1013C000407003F013FB06F1200202F5587106F598
:1013D000647405F5BE63A1F5507003F007FB05F5D5
:1013E000C0632246A4F5FE61A6F5807003F0FEFA04
:1013F00006F5687205F5C263A2F50061204606F5A0
:101400006C7403F0F3FA05F5C4632246A4F50C618D
:10141000A6F5D07003F0EAFA06F5707205F5C6631A
:10142000A2F50D61204603F0E1FA06F57472A2F50B
:10143000116105F5C86301F5096003F0D7FA05F5F8
:10144000CA6306F5787206F57C7106F5806003F0D4
:10145000CDFAA6F5A872A2F5547105F5CC6301F595
:101460000B6003F0C3FAA6F5A46105F5CE63A6F5FB
:10147000007201F5146003F0B9FA06F5866205F50D
:10148000D063A2F1100106F5886003F0AFFA06F50B
:101490008A6205F5D263A2F5CA6106F58C6003F095
:1014A000A5FA06F58E6205F5D46302F1100106F582
:1014B000926003F09BFA05F5D66306F5946206F593
:1014C000986106F5966003F091FA05F5D86306F584
:1014D0009A6206F59C6106F59E6003F087FA05F5B1
:1014E000DA6306F5A06206F5A26106F5A46003F0D2
:1014F0007DFAA6F5E072A2F5147105F5DC6301F53D
:10150000146003F073FA06F5AA6105F5DE6306F5CB
:10151000A862A1F5F87003F069FA06F5487205F5BE
:10152000E063A2F59C6106F5AC6003F05FFA06F596
:10153000B06105F5E26306F5AE62A1F5147003F043
:1015400055FA06F5BC6406F5BA6906F5B86A05F5FC
:10155000E46306F5B66206F5B26106F5B46003F021
:1015600045FA05F5E6634A465146204603F03EFA41
:1015700005F5E86306F5BE6206F5C06106F5C260D2
:1015800003F034FA06F5C66105F5EA6306F5C462B0
:10159000A1F5006003F02AFA05F5EC6306F5C862D0
:1015A000A6F59071404603F021FA06F5CA6205F5EA
:1015B000EE63A2F11001404603F018FA06F5CC6183
:1015C00005F5F06306F5D06201F1100003F00EFAA4
:1015D00005F5F26806F5D461434606F5D262A1F539
:1015E000096003F003FA06F5D66205F5F46302F12B
:1015F000100106F5DA6003F0F9F905F5F66306F572
:10160000DC6206F5E06106F5DE6003F0EFF905F552
:10161000F86306F5E26206F5E66106F5E46003F0BC
:10162000E5F906F5E861434606F54C7206F5EC6807
:10163000A1F5136003F0DAF905F5FA63424606F501
:10164000EE6106F5EA6003F0D1F905F5FC6306F5F5
:10165000F06206F5F46106F5F26003F0C7F906F5ED
:10166000F66205F5FE63A2F58C6106F5F86003F0FD
:10167000BDF906F5FE6105F5006306F5FA62A1F114
:10168000100003F0B3F905F50163524606F5006159
:10169000204603F0ABF905F502635246494606F5CC
:1016A000026A06F5016003F0A1F905F5036322461D
:1016B0005146484606F5036903F098F905F50463B9
:1016C00052462146484603F091F905F505634A461E
:1016D000214606F5046003F089F9A6F5A87205F520
:1016E000066302F5AC6106F5056006F50A6403F0D1
:1016F0007DF905F5076306F5066206F5086106F54E
:10170000076003F073F905F5086306F5096206F54D
:101710000B6120460BF5487503F068F9A4F52762C4
:101720002B4602F52961A7F1100003F05FF907F5D8
:1017300050610BF54C73A4F52762A1F1100003F082
:1017400055F907F553660BF55073A4F5F07207F5DC
:10175000526107F5516003F049F9A6F5207107F5CC
:10176000546A0BF554733246A1F1100003F03EF9B0
:101770000BF55873A4F50C725146304603F036F958
:101780000BF55C7307F55562414607F5566003F0AB
:101790002DF907F5347607F55A680BF5607307F5F0
:1017A000576207F5586107F5596003F01FF90BF50B
:1017B000647332464146A7F1400003F017F90BF578
:1017C000687307F55B6207F55C61404603F00EF94C
:1017D00007F55E610BF56C7307F55D62A1F5CE60F0
:1017E00003F004F90BF5707307F55F6207F56161AB
:1017F00007F5606003F0FAF80BF5747307F56262A1
:1018000007F5646107F5636003F0F0F80BF5787392
:1018100007F5656207F5676107F5666003F0E6F8AE
:101820000BF57C73A4F5846207F5696107F56860C0
:1018300003F0DCF807F56A620BF58063A2F5EA6154
:1018400007F56B6003F0D2F80BF5826307F56C6265
:10185000394607F5EA6003F0C9F807F56D62A5F5AA
:10186000C873A2F5466107F56E6003F0BFF807F58F
:101870006F620BF58463A2F5B26107F5706003F047
:10188000B5F8A4F5266207F5E8690BF5866302F55D
:10189000DE6107F5716003F0A9F80BF5886307F5C1
:1018A0007262494607F5736003F0A0F807F57462A9
:1018B0000BF58A63A2F57D61484603F097F807F5BA
:1018C000756205F5A073A2F5476107F5766003F030
:1018D0008DF805F5A0734A46A9F58C6107F5776088
:1018E00003F084F807F578620BF58E63A2F5E861E2
:1018F00007F5796003F07AF8A4F5AA62A5F50073FC
:10190000A2F5AA6107F57A6003F070F8A4F52A62DF
:1019100007F57C690BF5906302F5C46107F57B6000
:1019200003F064F80BF592634A4607F550713846A8
:1019300003F05CF80BF5946307F57D624946384681
:1019400003F054F807F57E6907F52C710BF59663E3
:101950004A46A1F5707003F049F807F57F620BF570
:1019600098634946A2F5885007F5805903F03EF880
:101970000BF59A635246AAF52871484603F036F8EB
:101980000BF59C634A46A9F5AC6104F5507003F071
:101990002DF80BF59E6307F5815204F5587107F594
:1019A000825003F023F80BF5A06304F5607207F58D
:1019B000835104F5687003F019F80BF5A26307F57D
:1019C000845204F5707107F5855003F00FF80BF59C
:1019D000A46304F5787207F5865104F5806003F07E
:1019E00005F804F584610BF5A66307F58752A1F5A8
:1019F000E26002F0FBFF0BF5A863A4F1C00207F55B
:101A0000885104F5886002F0F1FF07F58952A2F5CC
:101A10001B610BF5AA63A1F5F46002F0E7FF04F582
:101A20008C61A5F5A073A4F5AC62A1F56D6002F020
:101A3000DDFF04F590610BF5AC6307F58A52A1F563
:101A40008C6002F0D3FF07F58B52A2F51D610BF5F8
:101A5000AE63A1F5FE6002F0C9FF0BF5B06304F5BB
:101A6000946207F58C51304602F0C0FF0BF5B2636B
:101A7000A4F5A86204F59861304602F0B7FF0BF5B3
:101A8000B463324607F58D51404602F0AFFF04F5CE
:101A90009C62A2F5256107F58E560BF5B663A1F59C
:101AA000046002F0A3FF0BF5B863A4F52962314688
:101AB000A7F1C00002F09AFF0BF5BA6304F5A0622B
:101AC00007F58F51304602F091FF0BF5BC63A4F58A
:101AD000296204F5A461304602F088FF04F5A86687
:101AE0000BF5BE634A4607F59051504602F07EFF63
:101AF0000BF5C0633246A4F5536107F5487002F058
:101B000075FF07F591520BF5C263A2F5945130466B
:101B100004F5B06602F06AFF0BF5C463324604F5C3
:101B2000AC6107F59250A7F5207AA7F5B87902F0D5
:101B30005DFF0BF5C66307F5935204F5B4613046BB
:101B400002F054FF05F5487352460AF11001484669
:101B5000A7F51478A7F5C07602F048FF05F54C7399
:101B600052464946A9F5807002F040FF05F55073D2
:101B700042463146A6F1C00002F038FF05F5547325
:101B8000424608F11001304602F030FFA7F5087315
:101B90000093A4F568620BF5D063A2F18001009870
:101BA00002F024FF00990BF5D263A4F56862A4F556
:101BB0006C6BA1F1100002F019FF05F56073A4F53C
:101BC00069625946ABF1100002F010FFA4F569629A
:101BD00005F56473A2F14001584602F007FF08F1D1
:101BE000100105F55073424601F1600002F0FEFE5F
:101BF00008F1700105F554734246A1F1600002F04E
:101C0000F5FE0AF1B00105F548735246A1F1A000B6
:101C100002F0ECFE0AF1100105F54C73524601F199
:101C2000A00002F0E3FEA4F5696205F56873A2F175
:101C30005001584602F0DAFEA4F5796705F56C7399
:101C4000A4F569625946ABF1200002F0CFFE05F51C
:101C50007073A4F568620099384602F0C7FE05F576
:101C60007473A4F568623946009802F0BFFEABF1C8
:101C7000200105F578735A4601F1700002F0B6FEB6
:101C80000BF1500105F57C735A46A1F1700002F08A
:101C9000ADFE009A05F5806302F19001384602F02E
:101CA000A5FE05F58263009A394607F59870A4F5FC
:101CB000736702F09BFE05F550733A463146404685
:101CC00002F094FE05F584633A4607F5407130460C
:101CD00002F08CFE05F554733A4641463046A4F5B1
:101CE000766802F083FE05F586633A46314606F5CE
:101CF000087002F07BFEA4F5426605F54873424683
:101D00005146484602F072FE05F588634246494650
:101D1000304602F06BFE05F54C734246494650468C
:101D200002F064FEA4F5636A05F58A634246314613
:101D3000484602F05BFEAAF1D00105F58C635246DD
:101D400001F1800002F052FEAAF15001A4F562698F
:101D500005F58E635246A1F1800002F047FEA9F11D
:101D6000700105F590634A46A1F1400002F03EFE85
:101D7000A9F1B00105F592634A4601F1400002F075
:101D800035FE05F59463A4F561624146304602F0E4
:101D90002DFE05F59663A4F5616231464046A4F533
:101DA0005F6802F023FE05F59863424608F5E0718E
:101DB000384602F01BFE05F59A634246394607F5A0
:101DC0004070A4F5586702F011FE05F54873A4F5BC
:101DD0006A623946A7F5E07002F008FEA4F56A626F
:101DE00005F54C73A2F1A001384602F0FFFDA4F501
:101DF0005767A4F56B6205F55073A2F16001384690
:101E000002F0F4FD05F55473A4F56B623946A7F5AD
:101E1000D070A4F54A6702F0E9FD05F59C635246CF
:101E20003946A7F51870A4F5496402F0DFFD05F501
:101E30009E635246AAF1D001384602F0D7FD05F55F
:101E4000A0634A46A9F1B001204602F0CFFD05F596
:101E5000A2634A462146A4F5107002F0C7FD00991E
:101E600005F5A463A4F5E87201F5307002F0BEFD3B
:101E7000A4F5E87205F5A66302F50C71009802F06E
:101E8000B5FD05F5A863A4F5F0723146584602F099
:101E9000ADFD5946304605F5AA63A4F5F07203B0CE
:101EA000BDE8F04F02F0A2BD2DE9F04FFC4CFD4D16
:101EB00004F5AC6185B02B4604F5D66201F550708F
:101EC00002F094FD04F50B62A2F5C26104F1E00991
:101ED00005F1100301F51C7002F088FD09F5096198
:101EE00005F120034A46A1F5C86002F07FFD04F524
:101EF000447202F5A86105F13003A1F5A46002F077
:101F000075FD04F59662A2F5307105F1400301F507
:101F1000946002F06BFD04F5986202F5E87105F13A
:101F2000500301F1E00002F061FD04F5CC6202F51E
:101F3000987105F16003A1F5926002F057FD04F578
:101F4000E662A2F1100105F17003A1F5F07002F054
:101F50004DFD04F5707202F5147105F1800301F571
:101F60002C7002F043FD04F5887202F5BA6105F1A8
:101F70009003A1F5C87002F039FD04F52C62A2F5BA
:101F8000846105F1A003A1F5946002F02FFD04F532
:101F9000007205F1B00302F1D00104F1500002F02B
:101FA00025FD04F58862A2F5D07104F5747605F17B
:101FB000C00301F5C26002F019FD05F1D0034A46E5
:101FC0003146A6F5907002F011FD05F1E00304F52D
:101FD000FC623146484602F009FD04F5886202F5CC
:101FE000A46105F1F003A1F5D86002F0FFFC04F54F
:101FF0009E6604F5036105F580733246A1F5F07025
:1020000002F0F4FC06F5A87105F588733246A1F5D7
:10201000AA6002F0EBFC04F5FA6605F5907304F58E
:102020008872494609F5E87002F0E0FC05F59873FE
:102030003246494604F5A46002F0D8FC04F59072DB
:1020400002F54C7104F5C66805F5A073A1F15000C6
:1020500002F0CCFC05F5A87304F5B66231464046A3
:1020600002F0C4FC04F50C7B04F5247705F5B0738D
:1020700004F584624146A8F5487002F0B7FC05F506
:10208000B87304F5A8725946384602F0AFFC04F55F
:10209000946604F50E6205F5C07302F14001304606
:1020A00002F0A4FC04F51C7202F5926105F5C873F8
:1020B00001F5D07002F09AFC04F5116A04F5A262F1
:1020C00005F5D07302F5A061504602F08FFC04F5CF
:1020D0000562A2F5D07105F5D873A1F5607002F024
:1020E00085FC04F5126205F5E073A2F5BC6130468B
:1020F00002F07CFC04F5D86205F5E873A2F5C8711E
:1021000004F50D6002F072FC05F5F07304F526622B
:1021100004F51D6104F5306002F068FC04F51562F9
:10212000A2F5207104F5187605F5F87301F5347001
:1021300002F05CFC06F5487105F50073324601F5C6
:102140006C7002F053FC0AF5807105F50473524679
:10215000A1F5076002F04AFC05F5087304F5D0729A
:10216000494609F5146002F041FC04F5CA6205F520
:102170000C73A2F5B871504602F038FC05F51073E7
:1021800004F5106259460BF5826002F02FFC04F54D
:10219000B862A2F5826105F51473A1F1E00002F0C6
:1021A00025FC04F5B46202F1800105F5187301F510
:1021B000E07002F01BFC04F1800202F55C7105F591
:1021C0001C7301F1200002F011FC04F1900202F5F1
:1021D000AE6105F52073A1F5986002F007FCA8F543
:1021E000047105F52473424601F5C87004F5B8780A
:1021F00002F0FCFB05F5287304F5F0723946404601
:1022000002F0F4FB05F52C733A4607F5846140466D
:1022100002F0ECFB04F5B26804F5F87205F53073D2
:1022200002F53071404602F0E1FB05F5347304F528
:10223000F8724146A8F5647002F0D8FB04F56072AC
:10224000A2F5C87105F5387301F1100002F0CEFB5C
:1022500004F5F872A2F5D87104F5047704F5F06A74
:1022600005F53C7301F5547002F0C0FB05F54073B1
:1022700004F5BA623946504602F0B8FBAAF59061FF
:1022800005F54473524601F5926004F5087A02F0B0
:10229000ADFBAAF5047105F54873524604E000BF92
:1022A000D85F0008C86B000801F5E87002F09EFBDB
:1022B00004F5A26205F54C73A2F5A061504602F048
:1022C00095FBABF5A07105F550735A4601F5AA6070
:1022D00002F08CFB04F5807205F55473A2F1100135
:1022E00004F5026002F082FB04F5147A05F55873D8
:1022F00004F52A6204F5F46104F5EA6002F076FB65
:1023000004F5E26B05F55C7304F5AA625146AAF583
:10231000A07002F06BFB05F5607304F588725146FE
:10232000584602F063FB04F5CE62A2F5807105F514
:10233000647301F5087002F059FB04F5407202F570
:10234000107105F5687301F5907002F04FFB05F50B
:102350006C735A46ABF5F071304602F047FB05F559
:10236000707304F5B062314604F5DE6002F03EFBA6
:1023700005F57473324606F11001584602F036FB3B
:1023800004F5207B05F5787304F5C262314604F547
:102390002F6002F02BFB05F57C735A46ABF1100160
:1023A000304604F5687A02F021FB05F580635A4651
:1023B000314606F56C7002F019FBAAF5147105F5AB
:1023C00082635246A1F5A07002F010FB04F11002E6
:1023D00002F5A07105F5846301F1900002F006FB9F
:1023E00009F5E07105F586634A4601F5D86002F00B
:1023F000FDFA04F5D07205F5886302F507614846D9
:1024000002F0F4FA04F52762A2F5647105F58A6317
:10241000A1F5147002F0EAFA04F5A26202F56C71FB
:1024200004F1B00905F58C63A1F59C6002F0DEFAB9
:1024300004F5EC6B05F58E6304F50072494609F569
:10244000087002F0D3FA04F55C7605F590635A46FD
:10245000ABF59261484602F0C9FA05F5926332463F
:1024600006F58061404602F0C1FA04F1C00805F5A6
:1024700094635A46494604F53C7B09F5BE6002F078
:10248000B5FA04F5046905F596633A46594640469F
:1024900002F0ACFA05F598634A464146584602F008
:1024A000A5FA04F5AE6202F5D87105F59A6301F15B
:1024B000700002F09BFA05F59C634A46A9F51C7171
:1024C000404602F093FA05F59E6304F5BC62394676
:1024D00007F1F00002F08AFA05F5A06304F5E66260
:1024E000394607F5A26002F081FA04F5A07202F500
:1024F000986105F5A263A1F53C7002F077FA04F546
:10250000447202F1200105F5A46301F5C86002F0F0
:102510006DFA04F5487202F5647105F5A66301F5DC
:10252000F87005F5A86702F061FA04F5FE623B4613
:10253000A2F1F00104F5256002F058FA04F51062EA
:10254000A2F5EC6105F5AA6301F5086002F04EFA08
:1025500004F5106202F5907104F5146905F5AC6399
:10256000A1F55C7002F042FA05F5AE6304F5507215
:1025700004F51E61484602F039FA04F50162A2F141
:10258000100105F5B06301F5287002F02FFA04F58B
:10259000DA6202F5826104F1300B05F5B263A1F550
:1025A000A07004F5866802F021FA05F5B46304F51D
:1025B000076259460BF5807002F018FA05F5B6630C
:1025C00004F5246204F51F61404602F00FFA04F599
:1025D000E87202F5D86105F5B863A1F5DA6002F09A
:1025E00005FA04F1A002019605F5BA6302F523612C
:1025F000304604F5986602F0F9F905F5BC6304F578
:10260000D2623146A6F1100002F0F0F904F5F8723A
:1026100002F5C87105F5BE63A1F5507002F0E6F948
:1026200004F1400202F5507105F5C06301F110009C
:1026300002F0DCF904F5D462A2F5447105F5C26339
:10264000A1F5C87002F0D2F904F5007202F5C87164
:1026500005F5C463A1F1100002F0C8F905F5C663E1
:1026600004F59C625146AAF5647002F0BFF904F5C6
:102670009C6205F5C863A2F56471504602F0B6F994
:1026800005F5CA6304F550724946A9F5207002F0B9
:10269000ADF904F5707202F5866105F5CC63A1F51C
:1026A000F07002F0A3F904F5707202F5A06105F56F
:1026B000CE63A1F56C7002F099F904F5886205F516
:1026C000D06302F58E6104F5186002F08FF904F50D
:1026D000C462A2F1800105F5D263A1F5A07002F0F9
:1026E00085F904F5A062A2F5147105F5D46301F52E
:1026F000987002F07BF904F50B6205F5D663A2F53C
:10270000C06104F5196004F5F66A02F06FF904F58A
:10271000E07205F5D86302F50C71504602F066F9D7
:1027200004F5E07202F5DA6104F5F86905F5DA639B
:10273000A1F5946002F05AF905F5DC6304F598728E
:102740004946A9F5707002F051F904F5987202F546
:10275000347105F5DE6301F58E6002F047F905F589
:10276000E06304F524624146A8F1200002F03EF93E
:1027700004F5447202F53C7105F5E263A1F5F070D1
:1027800002F034F9AAF5BC6105F5E4635246A1F103
:10279000100002F02BF905F5E6635246AAF56871C0
:1027A000404602F023F905F5E863424608F5C0719A
:1027B000504602F01BF905F5EA6304F19002414628
:1027C000A8F5187002F012F904F5587205F5EC63DB
:1027D000A2F5C871404602F009F904F58C62A2F135
:1027E000200105F5EE6301F5F07002F0FFF804F545
:1027F000B862A2F59E6104F5906804F5236A05F5B8
:10280000F06301F55C7002F0F1F805F5F2635246F1
:10281000414604F5206002F0E9F804F5886202F10F
:10282000200105F5F46301F5B07002F0DFF805F55D
:10283000F6634A46A9F5D261584602F0D7F805F585
:10284000F8634A464146A8F1300002F0CFF805F59A
:10285000FA6342464946A9F5087002F0C7F805F543
:10286000FC635246AAF5BC61404602F0BFF805F58C
:10287000FE634246A8F53471584602F0B7F805F5F4
:10288000006304F554724146584602F0AFF804F56F
:102890009262A2F5F07104F5D06905F5016301F5C6
:1028A000147002F0A3F805F502634A46A9F5C07159
:1028B000019802F09BF804F5507202F5BC6105F531
:1028C000036301F1100002F091F805F5046304F1CF
:1028D000A002314606F5C26002F088F804F5B07235
:1028E00007F5447802F55071434601F5587002F03F
:1028F0007DF804F52B6107F5487304F50F62A1F527
:10290000447002F073F8019A07F54C7302F5A07158
:10291000484602F06BF8019A04F59A6B02F50871CB
:1029200007F55073A1F1E00002F060F807F5547369
:102930005A46ABF12001304602F058F807F55873BB
:102940003246A6F58461584602F050F807F55C73EC
:1029500004F596625946484602F048F804F52762A5
:10296000A2F5BC6107F5607301F5926002F03EF8D4
:1029700004F59C6202F5507104F5807507F56473E7
:10298000A1F5DA6002F032F805F5E46107F5687345
:102990002A4601F1100002F029F807F56C7304F1E2
:1029A000F002294605F57C7002F020F805F5E66195
:1029B00007F570732A46A1F5507002F017F804F578
:1029C0009262A2F57C7107F5747301F58C6002F0D8
:1029D0000DF8019A07F5787302F5C871A1F58C60BE
:1029E00002F004F804F5A26202F5387107F57C7371
:1029F000A1F5866001F0FAFF04F50872A2F140012A
:102A000007F5806301F54C7001F0F0FF04F5887262
:102A100002F5826107F58263A1F5886001F0E6FFA7
:102A200004F50562A2F5A86107F5846301F5D46099
:102A300001F0DCFF04F5C87202F1D00107F58663EE
:102A400001F5347001F0D2FF04F5A66202F5C871F9
:102A500004F5AE6A07F58863A1F5A66001F0C6FF2C
:102A6000AAF1300107F58A63524601F5F07001F0D2
:102A7000BDFF07F58C6304F5A8625146AAF120005A
:102A800001F0B4FF04F5A86202F1100107F58E63AE
:102A9000A1F5A66001F0AAFF04F1200202F50B6186
:102AA00007F59063A1F5687001F0A0FF04F50A62D4
:102AB000A2F5507104F51C6507F59263A1F58A60D3
:102AC00001F094FF07F5946304F505622946A5F526
:102AD0000B6001F08BFF04F5F07207F59663A2F12D
:102AE000900104F5247001F081FF07F5986304F567
:102AF000AA625146AAF5487001F078FF0AF5807184
:102B000007F59A635246A1F5846004F5B06A01F0B6
:102B10006DFF0AF5B87107F59C635246A1F56C701C
:102B200001F064FF04F5507207F59E6302F5BE6183
:102B3000504601F05BFF04F51A6202F5A07107F53B
:102B4000A063A1F5F46001F051FF04F5B262B03466
:102B500007F5A26302F58871204601F047FF04F5EE
:102B6000A87107F5A463224601F5647001F03EFFE9
:102B700004F5E662A2F5C66108F5087301F57C70FC
:102B800001F034FF04F59E6208F50C73A2F57C7128
:102B9000A6F1400001F02AFF04F5E462A2F50871F5
:102BA00008F51073A1F5A46001F020FFA6F19001D3
:102BB00008F5147304F5A062A1F5687001F016FF22
:102BC00004F5E262A2F5F26108F5187301F5B2604E
:102BD00001F00CFFA4F1800202F5C07108F51C732E
:102BE00001F5826001F002FF04F51E62A2F5F461B6
:102BF000A6F58C6706F5907408F5207301F538701A
:102C000001F0F4FE08F52473A6F5E072394620467B
:102C100001F0ECFE08F52873A6F52C72214604F1AC
:102C2000100001F0E3FEA6F5E07208F52C7302F542
:102C30003C71384601F0DAFE08F530733A4607F584
:102C4000B261204601F0D2FEA6F53C7202F5866123
:102C500008F53473A1F5AE6001F0C8FE06F5A07268
:102C6000A2F5866108F5387301F5BC6001F0BEFE7F
:102C700006F5B26108F53C7306F54C72A1F5886063
:102C800001F0B4FEA6F1F00208F5407302F582618E
:102C900006F5B07001F0AAFE08F5447306F57C72E3
:102CA00006F59A6106F5986001F0A0FE06F5B87188
:102CB00008F5487306F1600201F5D07001F096FE48
:102CC00006F5647206F5C07408F54C7302F5B07130
:102CD0002846A6F5487501F089FE08F5507322468E
:102CE000294606F5886001F081FE08F5547306F563
:102CF0008A62294605F5966001F078FE08F558735A
:102D0000224604F11001284601F070FE06F130025F
:102D100008F55C7302F5B071204606F5D07401F039
:102D200065FE08F56073A6F594622146A4F59070DF
:102D300001F05CFE06F5D87208F5647302F5907137
:102D4000204601F053FE06F1700202F5A07108F56D
:102D50006873A1F5CA6001F049FEA4F5C86108F5E1
:102D60006C73224601F5CA6001F040FE08F57074EC
:102D7000A6F13002234602F17001484601F036FE0A
:102D800008F574734A465946ABF1400001F02EFE37
:102D9000A6F1300206F5E875234602F17001A6F5AA
:102DA0009874484601F022FE08F57873224604F52F
:102DB0007871284601F01AFE08F57C732A46A6F5BC
:102DC0003471204601F012FEA6F5F87504F5DE62B6
:102DD00008F58063A2F57871284606F5F87B01F0C6
:102DE00005FEA6F5D07708F5826306F5C062294690
:102DF00005F5747001F0FAFD08F5846304F58C6242
:102E00005946384601F0F2FD08F586635A46ABF59F
:102E10009A61A6F5547001F0E9FD04F54C7202F5D3
:102E2000047108F58863A1F5866001F0DFFD04F503
:102E30004C72A2F5607108F58A6301F5B07001F07B
:102E4000D5FD04F5AC62A2F58A6106F5A26A06F525
:102E5000047908F58C63A1F5507001F0C7FD08F501
:102E60008E63524606F5B461484601F0BFFD04F595
:102E70005472A2F5866108F5906301F5F07001F0D7
:102E8000B5FDA4F5207202F5D07108F5926301F545
:102E9000866001F0ABFD04F55872A2F5926108F569
:102EA0009463A1F1D00001F0A1FD04F55872A2F5E0
:102EB000AC6108F5966301F5D87001F097FD08F54F
:102EC000986306F592625146484606F5107901F07E
:102ED0008DFD08F59A6304F58C623946484606F57F
:102EE000147A01F083FD08F59C633A4607F5B0615A
:102EF000484601F07BFDAAF1A00108F59E63524609
:102F0000A1F5A07001F072FDAAF5986108F5A06323
:102F1000524601F5846001F069FD06F51C7704F561
:102F2000D872A6F5806908F5A263A2F5107138463B
:102F300001F05CFD08F5A46304F56472494609F5E7
:102F4000A26001F053FD09F5CC6108F5A6634A467D
:102F5000A1F5A26001F04AFDA7F5866108F5A86316
:102F60003A46A1F1F00001F041FD06F5207706F5A3
:102F7000247108F5AA633A46A1F5BE6001F036FD5A
:102F800006F5287904F5447208F5AC6302F578710A
:102F9000484601F02BFD08F5AE632A464946A6F5E2
:102FA000007001F023FD04F5447208F5B06302F1EE
:102FB000D001204601F01AFD04F54472A2F5887193
:102FC00006F5307408F5B26301F5F07001F00EFDFE
:102FD00008F5B46306F598722146A4F5AE6001F0D9
:102FE00005FD06F5987208F5B663A2F53C7120461A
:102FF00001F0FCFC08F5B86306F58872214604F17F
:10300000100001F0F3FC06F5887202F5E071A6F5F8
:10301000507508F5BA63A1F1700001F0E7FC08F5FE
:10302000BC6306F538722946A6F5207001F0DEFC77
:10303000A6F1A00408F5BE63A6F1B002A6F1D00186
:1030400006F5A66001F0D2FC04F5647108F5C063D2
:103050002246A1F5007001F0C9FC08F5C26306F52F
:103060003C72214604F5F07001F0C0FCA6F160044A
:1030700008F5C463A6F1700206F5A861A6F1C000C8
:1030800001F0B4FC04F5A07108F5C663224601F511
:10309000087001F0ABFC08F5C86306F580722146A4
:1030A00004F5587001F0A2FC06F59662A2F50961DC
:1030B00008F5CA6301F5DE6001F098FCA6F56071C1
:1030C00008F5CC63A6F5866201F5D26001F08EFCAE
:1030D00006F59462A2F5C07108F5CE63A1F5E06033
:1030E00001F084FCA6F5447208F5D06302F5C661D0
:1030F000A6F57C7001F07AFC06F15002A2F54C7145
:1031000008F5D26301F5C26001F070FC08F5D463E4
:10311000A6F5387259460BF5A07001F067FCA6F5CC
:10312000C07208F5D66402F598612346A1F558707F
:1031300001F05CFC08F5D863A6F5C072294605F5D8
:10314000D06001F053FCA6F12002A2F5B071234635
:1031500001F5986001F04AFC06F55474A6F5587222
:1031600008F5DA6302F5D461204601F03FFC08F56A
:10317000DC63A6F558722146384601F037FCA6F507
:103180002474A6F55C7208F5DE6302F5DA61204668
:1031900001F02CFC04F5BE6108F5E0632246A1F5C0
:1031A000E66001F023FC06F1200202F5B87108F593
:1031B000E26301F5F07001F019FC06F55C72A2F112
:1031C0001001A6F5986406F5607708F5E463A1F5AB
:1031D000507001F00BFC08F5E66304F5BA6239465D
:1031E00007F5147008F5E86501F000FC04F53C7281
:1031F0002B46A2F11001384601F0F8FB04F50562F8
:10320000A2F5E86108F5EA6301F58A6001F0EEFBDA
:1032100008F5EC6304F5AC6259460BF5D07006F581
:103220006877CDF804B001F0E1FB04F5547208F5BD
:10323000EE63A2F54871384601F0D8FB08F5F0635B
:1032400004F1300206F56C71384606F5707701F02E
:10325000CDFBA7F5D66108F5F2633A4601F5C870D3
:1032600001F0C4FB08F5F46304F5E872394606F58D
:10327000747001F0BBFB08F5F66304F588725146E3
:103280000AF5C87001F0B2FB04F51C72A6F1E00764
:1032900008F5F86302F5C661504601F0A7FB08F592
:1032A000FA6304F50B623946A7F5987001F09EFBAE
:1032B00007F59A6104F5A26306F5806902933A4620
:1032C00008F5FC63A1F5687001F090FB08F5FE635A
:1032D00004F5A0623946484601F088FB04F5C26255
:1032E00008F5006302F59C61484601F07FFB04F598
:1032F000C26208F50163A2F56871A6F5107001F0CD
:1033000075FB04F5AA6202F5607108F50263A1F588
:103310000B6001F06BFB06F58463A6F120070393B5
:1033200004F50D6208F503630399384601F05EFB6E
:1033300004F52762A2F5D07108F50463A1F5607069
:1033400005F5887601F052FB04F527623346A2F5B5
:10335000A46104F5DC6001F049FB05F5907804F503
:103360000F624346A2F50C71384601F03FFB04F5AD
:103370000F62A2F5D66105F5987301F5906001F032
:1033800035FB434604F5D86204F51068394607F565
:103390008A6004F5247701F029FB05F5A0733A460D
:1033A0004146019801F022FB05F5A87342463946D3
:1033B00004F50C7001F01AFB04F51C7204F511679A
:1033C00004F1100805F5B07302F5FC6104F5E06046
:1033D00001F00CFB05F5B873029A3946404601F03E
:1033E00005FB05F5C0734246394604F59C6004F5BB
:1033F0009A6701F0FBFA05F5C87304F512623946C5
:1034000007F58C6001F0F2FA05F5D0733A4607F53E
:103410008A6104F5926001F0E9FA04F5187105F586
:10342000D87304F52F6201F5DA6001F0DFFAA7F531
:10343000866105F5E0733A4601F5096001F0D6FAB8
:1034400004F51462A2F5B26104F5156704F5DE68AF
:1034500005F5E87301F5EA6001F0C8FA05F5F073C7
:103460004246A8F5AC61384601F0C0FA04F1D00933
:1034700004F5166A05F5F87304F5B062414638465E
:1034800004F5886801F0B2FA05F500734246494632
:10349000504601F0ABFA04F5176B05F5047352467C
:1034A000494604F5447A04F5A07904F5FC6001F07E
:1034B0009DFA05F5087352465946484601F096FABA
:1034C00005F50C735A4604F5FA6104F5C46B4846D9
:1034D00004F5186901F08AFA05F510735A46414659
:1034E000484604F5747801F081FA05F514734246F4
:1034F0005946484604F5196B01F078FA05F518733A
:1035000042464946584601F071FA05F51C735A4681
:10351000ABF5DC61404601F069FA04F51A6804F580
:10352000507205F5207302F51071404601F05EFA05
:1035300004F5C66905F524733A464146A8F584604A
:1035400004F51B6801F052FA05F528734A46414616
:10355000504604F5A46A01F049FA05F52C73524669
:103560004146484604F51C6901F040FA05F5307300
:1035700052464946404601F039FA05F53473524641
:10358000AAF58261484601F031FA04F5D86202F5E5
:10359000447105F53873A1F5046001F027FA05F5CB
:1035A0003C7304F51D623946A7F5F86001F01EFA78
:1035B00004F5D86202F5886105F54073A1F50C6049
:1035C00001F014FA04F53062A2F5886104F5C07BBD
:1035D00005F5447301F5207001F008FA05F548730C
:1035E00004F5507259460BF5066001F0FFF904F539
:1035F000587202F5D26105F54C73A1F5C06001F077
:10360000F5F904F5866202F5B86105F55073A1F588
:10361000D26001F0EBF904F5547202F1B00105F546
:10362000547301F5C06001F0E1F904F59062A2F570
:10363000987104F5287904F5216805F5587301F5AA
:10364000D66001F0D3F904F1E00705F55C734A4652
:103650004146029801F0CAF905F560734A463946B9
:1036600004F54C79404604F5226801F0BFF905F5F0
:1036700064734A460199404601F0B8F905F568734C
:103680004A464146384601F0B1F904F52062A2F5F8
:10369000B26105F56C7301F5B86001F0A7F904F5A6
:1036A0001F6205F5707302F15001204601F09EF98A
:1036B00004F51C7202F5687105F5747301F58860F4
:1036C00001F094F904F5016202F5247105F57873AF
:1036D000A1F5587001F08AF904F50072A2F5D871CD
:1036E00005F57C7301F5276001F080F904F5DA62D5
:1036F00002F5447105F5806301F5807001F076F9FB
:1037000004F5266704F56C7205F5826302F54871CD
:10371000384601F06BF907F1A00105F584633A46DC
:10372000A1F5EA6001F062F9039905F5866304F5F5
:103730002762A1F1100001F059F9039A04F53078DD
:1037400002F5C87104F5286705F58863A1F5A8702E
:1037500001F04CF905F58A6304F5347241463846A8
:1037600001F044F905F58C63424604F5EC6104F57B
:10377000F468384604F52B6701F038F905F58E63D7
:1037800042463946A7F5587001F030F904F53C720D
:1037900002F5F46105F59063A1F5F66001F026F9F4
:1037A00004F5387202F5F66105F59263A1F514701F
:1037B00001F01CF905F594635A460BF5126104F506
:1037C000006001F013F905F59663424608F5407173
:1037D000584601F00BF904F5826904F1800A05F5F9
:1037E000986304F50F624146A8F5AC6004F5F668ED
:1037F00001F0FCF805F59A634A464146504601F04F
:10380000F5F805F59C6304F57C725146404604F5D5
:10381000907A04F58A6801F0E9F805F59E6342465E
:1038200051460AF5D46001F0E1F804F5806205F52F
:10383000A06302F57071504604F5B07A01F0D6F835
:1038400005F5A26352460AF5BE61384601F0CEF88E
:1038500006F5826304F51F622146484601F0C6F86A
:1038600006F58463224604F52461484601F0BEF85B
:1038700006F5866304F52062414608F1200001F058
:10388000B5F806F5886304F58E62414608F5BC601C
:1038900001F0ACF804F1700506F58A6304F50F62D7
:1038A0005146384604F5047804F5BA6701F09EF8ED
:1038B00006F58C6342463946284601F097F804F134
:1038C000500202F5207106F58E6301F5FE6004F5E5
:1038D000EE6A04F52D6901F089F806F59063524609
:1038E00004F55C71484601F081F806F59263524692
:1038F000494604F5986001F079F80BF5E07106F59A
:1039000094635A4601F5F46001F070F806F5966389
:1039100004F51E6259460BF5166001F067F804F5D0
:10392000D862A2F5906106F5986301F5F26001F0A6
:103930005DF806F59A634246294605F5207001F0C8
:1039400055F806F59C632A46394604F5A065A7F5A7
:10395000387001F04BF806F59E6304F52F62294696
:1039600004F50C6001F042F806F5A06304F1A00232
:10397000294605F5BE6001F039F804F1A00202F510
:10398000256106F5A263A1F5E07001F02FF804F5BA
:103990001D62A2F5F26106F5A46301F50C6001F069
:1039A00025F804F52A62A2F5547106F5A663A1F183
:1039B000100001F01BF804F5DA6202F51C7104F541
:1039C000066506F5A86301F1A00001F00FF806F501
:1039D000AA6304F554722946A5F58C6001F006F837
:1039E00004F5076206F5AC63A2F58E61284600F087
:1039F000FDFF04F5086504F5587206F5AE6302F1A3
:103A00009001284600F0F2FF06F5B06304F5096264
:103A10002946A5F5926000F0E9FF04F5DA62A2F507
:103A2000487106F5B26301F5B26000F0DFFF04F5FE
:103A3000B06206F5B463A2F5107104F5316000F0D0
:103A4000D5FF04F53262A2F58C6106F5B663A1F5E7
:103A5000A66005B0BDE8F04F00F0C8BF10F1FF3020
:103A600000D2704700BFF9E7164B1A6822F4706263
:103A700042F440721A601A6822F4704242F44052D2
:103A80001A601A6822F0704242F030421A601A68D6
:103A900022F4700242F430021A601A6822F4702292
:103AA00042F440321A60084A936943F480539361A8
:103AB0004FF45172054B1A8004229A8000229A8199
:103AC000704700BF00080140001002400030014074
:103AD000034B1A899207FCD59A8998811046704742
:103AE000003001400D4B1A4619898907FCD513890E
:103AF0001B06FCD44FF40021094B80B219614FF42E
:103B0000801119619081054A114610898007FCD502
:103B10000A891206FCD408221A617047003001405D
:103B2000000801400D4B1A4619898907FCD51389F5
:103B30001B06FCD408210A4B80B219614FF4801196
:103B400019619081054A114610898007FCD50A89C0
:103B50001206FCD410221A61704700BF00300140E9
:103B600000080140014608B5000AFFF7B1FFBDE8B3
:103B70000840C8B2FFF7ACBFF8B50F461C46064672
:103B80002A201546FFF7AEFF3846FFF7EBFF204629
:103B9000FFF7E8FF114B1A4619898C07FCD51389EA
:103BA0001806FCD410230E4C2B202361FFF79AFF3C
:103BB0003046FFF7D7FF2846FFF7D4FF074B1A46DA
:103BC00019898907FCD513891B06FCD410232C20E6
:103BD0002361BDE8F840FFF785BF00BF003001401A
:103BE00000080140002138B5EF22054640F23F139E
:103BF0000846FFF7C1FF40F644324FF496340A49B5
:103C00000A802846FFF764FF013CFAD10B89980728
:103C1000FCD5054B1A891206FCD41021034A116108
:103C20004FF451721A8038BD003001400008014045
:103C300070B5BE4C236823F4702343F440332360F3
:103C4000236823F4704343F440532360236823F430
:103C5000706343F440732360FFF706FF4FF4802343
:103C6000B3482361FFF7FAFE042301202361FFF725
:103C700039FFB04B1A4619898D07FCD5108910F011
:103C80008005FBD11023AA482361FFF7E7FECB2074
:103C9000FFF728FF3920FFF71BFF2C20FFF718FF45
:103CA0002846FFF715FF3420FFF712FF0220FFF729
:103CB0000FFFA04B1A4619898807FCD5108910F010
:103CC0008005FBD11023CF202361FFF70BFF28468F
:103CD000FFF7FEFEC120FFF7FBFE3020FFF7F8FEE6
:103CE000944B1A4619898907FCD5108910F0800574
:103CF000FBD11023E8202361FFF7F4FE8520FFF7B6
:103D0000E7FE2846FFF7E4FE7820FFF7E1FE894B47
:103D10001A4619898E07FCD5158915F08005FBD147
:103D20001023EA202361FFF7DDFE2846FFF7D0FECF
:103D30002846FFF7CDFE7F4B1A4619898D07FCD523
:103D400013891806FCD41023ED202361FFF7CAFE67
:103D50006420FFF7BDFE0320FFF7BAFE1220FFF735
:103D6000B7FE8120FFF7B4FE724B1A461989890706
:103D7000FCD513891E06FCD41023B6202361FFF75F
:103D8000B1FE0820FFF7A4FE8220FFF7A1FE272046
:103D9000FFF79EFE674B1A4619898D07FCD51089DF
:103DA00010F08005FBD11026E0202661FFF79AFE77
:103DB0000F20FFF78DFE3120FFF78AFE2B20FFF743
:103DC00087FE0C20FFF784FE0E20FFF781FE0820FF
:103DD000FFF77EFE4E20FFF77BFEF120FFF778FE17
:103DE0003720FFF775FE0720FFF772FE3046FFF71A
:103DF0006FFE0320FFF76CFE0E20FFF769FE09201F
:103E0000FFF766FE2846FFF763FE4A4B1A461989FC
:103E10008807FCD5108910F08005FBD11023E12024
:103E20002361FFF75FFE2846FFF752FE0E20FFF7E3
:103E30004FFE1420FFF74CFE0320FFF749FE112030
:103E4000FFF746FE0720FFF743FE3120FFF740FE55
:103E5000C120FFF73DFE4820FFF73AFE0820FFF79C
:103E600037FE0F20FFF734FE0C20FFF731FE312024
:103E7000FFF72EFE3620FFF72BFE0F20FFF728FE60
:103E80002C4B1A4619898907FCD513891B06FCD4CB
:103E90001023F7202361FFF725FE264B1A461989C8
:103EA0008E07FCD513891D06FCD410232020236126
:103EB000FFF738FEC020FFF715FE1E4B1A46198982
:103EC0008C07FCD513891806FCD41023174C23202B
:103ED0002361FFF727FEC120FFF704FE154B1A46AA
:103EE00019898907FCD513891E06FCD4102020618E
:103EF000FFF718FEC520FFF7F5FD0E4B1A4619898E
:103F00008D07FCD513891806FCD410233E202361AD
:103F1000FFF708FE2820FFF705FEC720FFF7E2FDA8
:103F2000044B1A4619898907FCD505E000080140B1
:103F3000A08601000030014013891E06FCD4102326
:103F400086202361FFF7EEFD3A20FFF7CBFD374BCC
:103F50001A4619898D07FCD513891806FCD410233D
:103F600055202361FFF7DEFDB120FFF7BBFD2F4B8E
:103F70001A4619898907FCD5108910F08000FBD1F9
:103F800010232361FFF7CEFD1820FFF7CBFDF220B1
:103F9000FFF7A8FD254B1A4619898E07FCD5108915
:103FA00010F08000FBD110232361FFF7BBFD26201A
:103FB000FFF798FD1D4B1A4619898D07FCD513890B
:103FC0001806FCD4102301202361FFF7ABFD362037
:103FD000FFF788FDA820FFF77BFD144B1A461989CF
:103FE0008907FCD513891E06FCD4102311202361F8
:103FF000FFF778FD0D4B1A4619898D07FCD51389FB
:104000001806FCD410230A482361FFF727FD292056
:10401000FFF768FD054B1A4619898907FCD51389F6
:104020001B06FCD41023236170BD00BF003001408B
:10403000A086010040F60433114A10B5114C1380DC
:10404000636943F0010363610F4BA4F55F44F43CE3
:104050009C60D860596043F290511960196841F032
:10406000010119604FF40071938843F002039380BB
:10407000064B5960138843F04003138010BD00BF06
:1040800000300140001002403000024000000240B9
:1040900010B54FF400740B4B1A6822F001021A603D
:1040A000094A546043F29052D86059601A601A6805
:1040B00042F001021A60054A138843F0400313805E
:1040C00010BD00BF3000024000000240003001403F
:1040D0004FF400710B4A938823F002031B041B0C5E
:1040E0009380094B596009490B6823F001030B6069
:1040F000138823F040031B041B0C13804FF45173EF
:104100001380704700300140000002403000024040
:1041100010F1FF3000D2704700BFF9E74FF07E5238
:10412000094BDA639A625A611A600022DA619A6175
:104130001A61DA609A605A609A635A631A63DA62A3
:104140005A621A62704700BF9C020020224B2DE980
:10415000F04F53F820704030C0B253F82080002157
:1041600000231E4A91B052F8230042F823104DF864
:1041700023000133102BF6D1194DADF104040DF1DC
:104180000C0A54F8043F4146D4F8109045F8043F17
:10419000484601F0ADFB266A83463946304601F0B9
:1041A000A7FB0146584601F099FA3946286148466E
:1041B00001F09EFB41468146304601F099FB0146E5
:1041C000484601F08DFA236B544528622B63D8D101
:1041D00011B0BDE8F08F00BF28AE00089C0200209F
:1041E00098020020214B2DE9F04F53F82070403009
:1041F000C0B253F82080002100231D4A91B052F82C
:10420000230042F823104DF823000133102BF6D180
:10421000184DADF104040DF10C0A54F8049F414609
:10422000484601F065FB266A83463946304601F070
:104230005FFB0146584601F051FA236945F8040F27
:104240002B613946484601F053FB414681463046D2
:1042500001F04EFB0146484601F042FA236B5445FB
:1042600028622B63D9D111B0BDE8F08F28AE0008C9
:104270009C02002098020020214B2DE9F04F53F8BA
:1042800020704030C0B253F82080002100231D4A26
:1042900091B052F8230042F823104DF82300013367
:1042A000102BF6D1184DADF104040DF10C0A54F8A1
:1042B000049F4146484601F01BFB26698346394668
:1042C000304601F015FB0146584601F007FA394621
:1042D00045F8040F484601F00BFB41468146304645
:1042E00001F006FB0146484601F0FAF9236A5445FD
:1042F0002B62236B28612B63D9D111B0BDE8F08FFD
:1043000028AE00089C020020980200202DE9F04F02
:10431000054699B0084616461C46884601F0E8FA5C
:1043200031460746304601F0E3FA0146384601F0CF
:10433000D7F921460746204601F0DAFA0146384609
:1043400001F0CEF901F0E4FC07460146404601F0D9
:1043500083FB39468046304601F07EFB39460646EF
:10436000204601F079FB6B4B044653F8259040350D
:10437000EDB253F825504FF07E50294601F0AEF9CA
:10438000002307460021644A52F823000DF1200C57
:104390004CF8230042F823100133102BF4D1394696
:1043A000404601F0A5FA4146824601F0A1FA2946AD
:1043B00001F096F931460190504601F099FA4946CC
:1043C0008346204601F094FA01460490584601F0D5
:1043D00085F921460290504601F08AFA4946824604
:1043E000304601F085FA01460690504601F078F912
:1043F000049B03901946584601F072F9394604901F
:10440000304601F075FA3146834601F071FA2946CB
:1044100001F066F921460590584601F069FA4946CF
:104420000646404601F064FA83460146304601F0F4
:1044300055F9069A80461146504601F04FF9594603
:104440008146304601F04CF939460690204601F08D
:104450004FFA214601F04CFA294601F041F9834612
:104460002E4D07AC54F8046F0199304601F040FA24
:10447000D4F810A007900299504601F039FA079A33
:104480000146104601F02CF9276A07900399384637
:1044900001F02EFA079A0146104601F021F904991D
:1044A00045F8040F304601F023FA0599079050466D
:1044B00001F01EFA079A0146104601F011F9414633
:1044C0000790384601F014FA079A0146104601F0A9
:1044D00007F949462861304601F00AFA0699079023
:1044E000504601F005FA079B0146184601F0F8F81E
:1044F00059468246384601F0FBF90146504601F024
:10450000EFF8236B28622B630BABA342AAD119B03F
:10451000BDE8F08F28AE00089C0200209802002021
:1045200008B54FF0864101F0E3F900F019FE08A349
:10453000D3E9002300F096FF01F07CF801F0C4FB02
:10454000BDE80840C0B2FFF701BE00BFAFF3008076
:10455000182D4454FB21094008B54FF0864101F065
:10456000C7F900F0FDFD08A3D3E9002300F07AFFAE
:1045700001F060F801F0A8FBBDE80840C0B2FFF709
:1045800031BE00BFAFF30080182D4454FB21094019
:1045900008B54FF0864101F0ABF900F0E1FD08A34A
:1045A000D3E9002300F05EFF01F044F801F08CFB3A
:1045B000BDE80840C0B2FFF75FBE00BFAFF30080A8
:1045C000182D4454FB21094070B50C464FF086412C
:1045D00015461E4601F08CF900F0C2FD08A3D3E990
:1045E000002300F03FFF01F025F801F06DFB33469A
:1045F0002A462146BDE87040C0B2FFF787BE00BF23
:10460000182D4454FB21094070B5094C0E46014653
:10461000E068154601F064F83146E060E06901F0B9
:104620005FF82946E061E06A01F05AF8E06270BD87
:104630009C0200202DE9F047394CD0F800804768F3
:1046400086680D464046216901F052F9616981464C
:10465000384601F04DF90146484601F041F8A1699C
:104660008146304601F044F90146484601F038F8E9
:10467000E16901F035F82B4901F03AF92A4901F0D6
:104680002FF8216A8246404601F032F9616A81467C
:10469000384601F02DF90146484601F021F8A16A9B
:1046A0008146304601F024F90146484601F018F8E9
:1046B000E16A01F015F84FF0874101F019F91B4943
:1046C00001F00EF821688146404601F011F9616859
:1046D0008046384601F00CF90146404601F000F8EA
:1046E000A1680746304601F003F90146384600F05C
:1046F000F7FFE16800F0F4FF0A4901F0F9F8094911
:1047000000F0EEFF01F0BAFA2880504601F0B6FA48
:104710006880484601F0B2FAA880BDE8F08700BF83
:104720009C0200200000EE4200001F4300F07F4585
:10473000074B10B51C6800231946064A24F81300DD
:1047400022F813100133B3F5A07FF7D110BD00BFDD
:10475000000000201A00002073B569460546FFF7E7
:1047600069FF0623084A094C1178BDF800604B43E5
:10477000E018E652BDF802304380AB89838009B966
:104780000123137002B070BD0A0000201400002045
:10479000054B01889A88914201BF818842881B6835
:1047A00023F81210704700BF00000020F0B50D463E
:1047B00085B069461A4E0446FFF73CFF284602A919
:1047C000FFF738FF7378BDF90050BDF908001549AF
:1047D0001B01854201EB0302B8BF5080BDF9027096
:1047E000A8BF5580BDF90A20A8BFC852A2EB070296
:1047F0004FEA0242A0EB0500B8BFCD5292FBF0F3A6
:10480000727801EB02114B606B43A7EB23438B6083
:10481000A389CB810AB90123737005B0F0BD00BF35
:104820000A000020BC490020194A4388918830B50D
:104830008B4224D30488A14221D3436803FB01F5B2
:10484000836803EB2543B3F5A07F08DA002B08DA71
:10485000A1424FF0000306D014681A4614E040F25B
:104860003F13A14200D1838181899942F4DA126811
:10487000C48922F8114001319942F9DD838130BDAC
:10488000C18924F81210013281899142F8DAF5E7E2
:10489000000000202DE9F04F0F46164687B0514B1F
:1048A00069465C880546FFF7C5FE384602A9FFF752
:1048B000C1FE04A93046FFF7BDFEBDF90020BDF9D9
:1048C000083049489A42D4BF6A4602AAB2F9001099
:1048D000BDF91030CCBFEE460DF1080E9942CCBFA9
:1048E000174604AFB7F90030BEF90010C8BF04AADC
:1048F00099424FF03001C4BF7346BE4601FB04F13C
:10490000B2F90090C8BF1F4620F801904318BEF9C5
:104910000240B2F90210BEF90060601AA6EB090865
:10492000000490FBF8F0986000FB09F01FFA81FB8F
:10493000ABEB2040B2F904209882BEF90400B7F92D
:1049400000C0A0EB020E4FEA0E4E9EFBF8FEC3F82D
:104950001CE00EFB09FE1FFA82F8A8EB2E4EA3F80E
:1049600028E0B7F902E0ACEB090AAEEB010109045B
:1049700091FBFAF1D96001FB09F1B7F90470ABEBD7
:104980002141BA1AD982110491FBFAF2A4EB0E0468
:10499000C01B5E800004A6EB0C06240494FBF6F416
:1049A00090FBF6F61A6202FB09F21C61A8EB2242A8
:1049B00004FB0CF45E6206FB0CF65A85AA89AEEB8A
:1049C0002444DA85074AA7EB2646A3F804C01C83D3
:1049D0009E855388B3F5BD7F3CBF0133538007B03C
:1049E000BDE8F08F0A000020DC0200202DE9F04F26
:1049F000D3F800A0A84C8BB0CDE900128146216A03
:104A000050465F689E6800F073FF616A054638464D
:104A100000F06EFF0146284600F062FEA16A0546DE
:104A2000304600F065FF0146284600F059FE00219F
:104A3000834601F0FBF8002840F02A8121695046A6
:104A400000F056FF61690290384600F051FF029B6A
:104A50000146184600F044FEA1690290304600F07D
:104A600047FF029B0146184600F03AFE002100F085
:104A70003FFF21680390504600F03AFF61680290C2
:104A8000384600F035FF029A0146104600F028FE35
:104A9000A1680746304600F02BFF0146384600F07B
:104AA0001FFE039B0146184600F01AFE0021044633
:104AB000584600F01DFF0146204600F011FE774DDC
:104AC00000F04EFBB5F8028001F01EF90022744B95
:104AD00000F0E8F900F0AEFD4FF07E51064601F01F
:104AE000C3F808B14FF07E56B9F80CB04FEA1B205E
:104AF00000F0F80000F0A8FE314600F0F9FE01F0E9
:104B0000BDF800F0F8074FEADB0000F0FC00ADF85C
:104B1000107000F099FE314600F0EAFE01F0AEF8A8
:104B200000F0FC044FEACB0000F0F800ADF81240B2
:104B300000F08AFE314600F0DBFE01F09FF83023E2
:104B4000584EE40003FB086344EA072400F0F80031
:104B5000ADF8140044EAD000D88504A94846FFF710
:104B600069FD06A90098FFF765FD08A90198FFF700
:104B700061FDBDF91020BDF9183031469A42CCBF15
:104B800006AA04AAB2F90000BDF92030CCBF0DF18D
:104B9000100A0DF1180A9842CCBF94460DF1200C72
:104BA000BCF90030BAF90000C8BF08AA9842C2BFD9
:104BB0005346E2469C46302303FB08F8B2F90060F6
:104BC00001EB0803BAF9024021F80860B2F90210BB
:104BD000BAF90070601AA7EB0609000490FBF9F01F
:104BE000986070431FFA81FBABEB2040B2F90420C0
:104BF0009882BAF90400BCF900E0A0EB02084FEA81
:104C0000084898FBF9F8C3F81C8008FB06F81FFA5F
:104C100082F9A9EB2848A3F82880BCF90280AEEB02
:104C2000060AA8EB0101090491FBFAF1D96071436E
:104C3000BCF904C0ABEB2141ACEB0202A4EB0804CD
:104C4000A0EB0C005F80D982A7EB0E0711042404AF
:104C5000000494FBF7F491FBFAF290FBF7F71A6269
:104C60001C615F62724304FB0EF407FB0EF7A9EBB5
:104C70002242A8EB2444ACEB2747A3F804E05A8572
:104C80001C839F856B88B3F5BD7F3CBF01336B8070
:104C90000BB0BDE8F08F00BF9C0200200A0000208E
:104CA0000000E03FDC020020F0B5314DB0F90430E7
:104CB000AE88B34240DBB0F900309E423CDBC368B3
:104CC000B0F91620734302EB2343026AB0F92A10AD
:104CD000724301EB2242B0F902108E422DDA816854
:104CE000B0F91440714304EB2141C4696643B0F943
:104CF000284004EB2644121B5E1A120492FBF6F2C3
:104D000002FB01F69942A4EB2644DEBF1E460B4689
:104D10003146002910DB40F23F16B342A8BF3346AC
:104D200023EAE373D5F800C003FB02F5B142A8BF44
:104D30003146104E8B420BDBF0BD0169B0F91840D3
:104D4000714304EB2141446A6643B0F92C40D0E73B
:104D500036F913E004EB2547BE45B8BFB0F82EE0A6
:104D60001544BCBF2CF813E026F813700133E1E7BB
:104D7000000000201A000020F8B5174E0020FFF7B1
:104D8000D7FC00243546154F3278A3B29A420FD88B
:104D90000024134E6A78A3B29A4210D8002030261D
:104DA000104F6A8883B29A4200F101040DD8F8BD11
:104DB000062000FB0470FFF7EBFC0134E4E706EB90
:104DC0000410FFF731FD0134E4E780B206FB007008
:104DD000FFF76AFF2046E4E70A00002014000020E5
:104DE000BC490020DC0200200A210148FFF722B95B
:104DF000CC49002000232DE9F041224C224DA38014
:104E0000256005F52076FFF7B7FF204A2660136876
:104E10009905FCD5FFF75CF9002140F23F130846E5
:104E2000EF22FEF7A9FE4FF4A0711748FFF702F931
:104E30000123174FDFF85480A380A388EF2B06D9F6
:104E40000022144B1A705A705A80BDE8F081FFF7A7
:104E500093FF80233B61D8F800309B05FBD54FF4CE
:104E600000034FF4A0713B612068FFF711F923683C
:104E7000AB4214BF2B4633462360A3880133A38083
:104E8000DBE700BF00000020CC490020000002400A
:104E9000000C01400A00002081F0004102E000BF48
:104EA00083F0004330B54FEA41044FEA430594EAEA
:104EB000050F08BF90EA020F1FBF54EA000C55EA25
:104EC000020C7FEA645C7FEA655C00F0E2804FEAF6
:104ED0005454D4EB5555B8BF6D420CDD2C4480EAD8
:104EE000020281EA030382EA000083EA010180EA08
:104EF000020281EA0303362D88BF30BD11F0004F56
:104F00004FEA01314FF4801C4CEA113102D040428B
:104F100061EB410113F0004F4FEA03334CEA1333C6
:104F200002D0524263EB430394EA050F00F0A780DE
:104F3000A4F10104D5F1200E0DDB02FA0EFC22FAD9
:104F400005F2801841F1000103FA0EF2801843FACD
:104F500005F359410EE0A5F120050EF1200E012ABE
:104F600003FA0EFC28BF4CF0020C43FA05F3C018FC
:104F700051EBE37101F0004507D54FF0000EDCF175
:104F8000000C7EEB00006EEB0101B1F5801F1BD31E
:104F9000B1F5001F0CD349085FEA30004FEA3C0C22
:104FA00004F101044FEA445212F5800F80F09A8018
:104FB000BCF1004F08BF5FEA500C50F1000041EB1C
:104FC000045141EA050130BD5FEA4C0C404141EB20
:104FD000010111F4801FA4F10104E9D191F0000F47
:104FE00004BF01460020B1FA81F308BF2033A3F1CA
:104FF0000B03B3F120020CDA0C3208DD02F1140CC1
:10500000C2F10C0201FA0CF021FA02F10CE002F1FB
:105010001402D8BFC2F1200C01FA02F120FA0CFCF4
:10502000DCBF41EA0C019040E41AA2BF01EB04513D
:10503000294330BD6FEA04041F3C1CDA0C340EDC3B
:1050400004F11404C4F1200220FA04F001FA02F37E
:1050500040EA030021FA04F345EA030130BDC4F13C
:105060000C04C4F1200220FA02F001FA04F340EA31
:105070000300294630BD21FA04F0294630BD94F0E2
:10508000000F83F4801306BF81F480110134013DC9
:105090004EE77FEA645C18BF7FEA655C29D094EA3A
:1050A000050F08BF90EA020F05D054EA000C04BFB8
:1050B0001946104630BD91EA030F1EBF00210020A3
:1050C00030BD5FEA545C05D14000494128BF41F042
:1050D000004130BD14F580043CBF01F5801130BDA6
:1050E00001F0004545F0FE4141F470014FF0000031
:1050F00030BD7FEA645C1ABF194610467FEA655CE2
:105100001CBF0B46024650EA013406BF52EA033583
:1051100091EA030F41F4002130BD00BF90F0000F71
:1051200004BF0021704730B54FF4806404F13204AD
:105130004FF000054FF0000150E700BF90F0000F66
:1051400004BF0021704730B54FF4806404F132048D
:1051500010F0004548BF40424FF000013EE700BF5D
:1051600042004FEAE2014FEA31014FEA02701FBFED
:1051700012F07F4393F07F4F81F06051704732F01F
:105180007F4208BF704793F07F4F04BF41F4002176
:10519000704730B54FF4607401F0004521F00041D4
:1051A0001CE700BF50EA010208BF704730B54FF05E
:1051B00000050AE050EA010208BF704730B511F05F
:1051C000004502D5404261EB41014FF4806404F197
:1051D00032045FEA915C3FF4D8AE4FF003025FEA1D
:1051E000DC0C18BF03325FEADC0C18BF033202EBA1
:1051F000DC02C2F1200300FA03FC20FA02F001FAFB
:1052000003FE40EA0E0021FA02F11444BDE600BF9D
:1052100070B54FF0FF0C4CF4E06C1CEA11541DBF4C
:105220001CEA135594EA0C0F95EA0C0F00F0DEF817
:105230002C4481EA030621EA4C5123EA4C5350EAFC
:10524000013518BF52EA033541F4801143F480134D
:1052500038D0A0FB02CE4FF00005E1FB02E506F0DE
:105260000042E0FB03E54FF00006E1FB03569CF033
:10527000000F18BF4EF0010EA4F1FF04B6F5007F39
:1052800064F5407404D25FEA4E0E6D4146EB0606AB
:1052900042EAC62141EA55514FEAC52040EA5E5034
:1052A0004FEACE2EB4F1FD0C88BFBCF5E06F1ED8DE
:1052B000BEF1004F08BF5FEA500E50F1000041EB15
:1052C000045170BD06F0004646EA010140EA0200C2
:1052D00081EA0301B4EB5C04C2BFD4EB0C0541EAE4
:1052E000045170BD41F480114FF0000E013C00F3F9
:1052F000AB8014F1360FDEBF002001F0004170BD1D
:10530000C4F10004203C35DA0C341BDC04F1140435
:10531000C4F1200500FA05F320FA04F001FA05F2C1
:1053200040EA020001F0004221F0004110EBD3708E
:1053300021FA04F642EB06015EEA430E08BF20EABA
:10534000D37070BDC4F10C04C4F1200500FA04F35D
:1053500020FA05F001FA04F240EA020001F00041EF
:1053600010EBD37041F100015EEA430E08BF20EA62
:10537000D37070BDC4F1200500FA05F24EEA020EAA
:1053800020FA04F301FA05F243EA020321FA04F0D9
:1053900001F0004121FA04F220EA020000EBD37090
:1053A0005EEA430E08BF20EAD37070BD94F0000F90
:1053B0000FD101F00046400041EB010111F4801FC4
:1053C00008BF013CF7D041EA060195F0000F18BF75
:1053D000704703F00046520043EB030313F4801FB1
:1053E00008BF013DF7D043EA0603704794EA0C0F6B
:1053F0000CEA135518BF95EA0C0F0CD050EA410681
:1054000018BF52EA4306D1D181EA030101F00041FD
:105410004FF0000070BD50EA410606BF1046194625
:1054200052EA430619D094EA0C0F02D150EA013631
:1054300013D195EA0C0F05D152EA03361CBF104672
:1054400019460AD181EA030101F0004141F0FE4111
:1054500041F470014FF0000070BD41F0FE4141F495
:10546000780170BD70B54FF0FF0C4CF4E06C1CEA95
:1054700011541DBF1CEA135594EA0C0F95EA0C0F4A
:1054800000F0A7F8A4EB050481EA030E52EA033505
:105490004FEA013100F088804FEA03334FF0805526
:1054A00045EA131343EA12634FEA022245EA111553
:1054B00045EA10654FEA00260EF000419D4208BF04
:1054C000964244F1FD0404F5407402D25B084FEAB1
:1054D0003202B61A65EB03055B084FEA32024FF45D
:1054E00080104FF4002CB6EB020E75EB030E22BFBA
:1054F000B61A754640EA0C005B084FEA3202B6EB7A
:10550000020E75EB030E22BFB61A754640EA5C0028
:105510005B084FEA3202B6EB020E75EB030E22BFB8
:10552000B61A754640EA9C005B084FEA3202B6EBB9
:10553000020E75EB030E22BFB61A754640EADC0078
:1055400055EA060E18D04FEA051545EA16754FEADA
:1055500006164FEAC30343EA52734FEAC2025FEAF8
:105560001C1CC0D111F4801F0BD141EA00014FF087
:1055700000004FF0004CB6E711F4801F04BF014358
:105580000020B4F1FD0C88BFBCF5E06F3FF6AFAE74
:10559000B5EB030C04BFB6EB020C5FEA500C50F104
:1055A000000041EB045170BD0EF0004E4EEA113187
:1055B00014EB5C04C2BFD4EB0C0541EA045170BD8E
:1055C00041F480114FF0000E013C90E645EA060ED2
:1055D0008DE60CEA135594EA0C0F08BF95EA0C0F00
:1055E0003FF43BAF94EA0C0F0AD150EA01347FF448
:1055F00034AF95EA0C0F7FF425AF104619462CE71F
:1056000095EA0C0F06D152EA03353FF4FDAE104681
:10561000194622E750EA410618BF52EA43067FF4D2
:10562000C5AE50EA41047FF40DAF52EA43057FF462
:10563000EBAE12E74FEA4102B2F1E04324BFB3F50B
:10564000001CDCF1FE5C0DD901F0004C4FEAC002F9
:105650004CEA5070B2F1004F40EB830008BF20F0DD
:105660000100704711F0804F21D113F13872BCBF97
:1056700001F00040704741F480114FEA5252C2F1EC
:105680001802C2F1200C10FA0CF320FA02F018BF35
:1056900040F001004FEAC1234FEAD32303FA0CFC88
:1056A00040EA0C0023FA02F34FEA4303CCE77FEA17
:1056B000625307D150EA01331EBF4FF0FE4040F461
:1056C0004000704701F0004040F0FE4040F4000010
:1056D000704700BF80F0004002E000BF81F0004151
:1056E00042001FBF5FEA410392EA030F7FEA226C88
:1056F0007FEA236C6AD04FEA1262D2EB1363C1BF18
:10570000D218414048404140B8BF5B42192B88BF86
:10571000704710F0004F40F4000020F07F4018BFA9
:10572000404211F0004F41F4000121F07F4118BFC9
:10573000494292EA030F3FD0A2F1010241FA03FC71
:1057400010EB0C00C3F1200301FA03F100F0004359
:1057500002D5494260EB4000B0F5000F13D3B0F121
:10576000807F06D340084FEA310102F10102FE2A90
:1057700051D2B1F1004F40EBC25008BF20F0010000
:1057800040EA03007047490040EB000010F4000FAE
:10579000A2F10102EDD1B0FA80FCACF1080CB2EB41
:1057A0000C0200FA0CF0AABF00EBC25052421843A0
:1057B000BCBFD0401843704792F0000F81F4000145
:1057C00006BF80F400000132013BB5E74FEA410318
:1057D0007FEA226C18BF7FEA236C21D092EA030F84
:1057E00004D092F0000F08BF0846704790EA010FFE
:1057F0001CBF0020704712F07F4F04D1400028BF2B
:1058000040F00040704712F100723CBF00F500000C
:10581000704700F0004343F0FE4040F40000704742
:105820007FEA226216BF08467FEA236301464202EE
:1058300006BF5FEA412390EA010F40F48000704701
:105840004FF0000304E000BF10F0004348BF4042A7
:105850005FEA000C08BF704743F0964301464FF0E3
:1058600000001CE050EA010208BF70474FF000033F
:105870000AE000BF50EA010208BF704711F0004380
:1058800002D5404261EB41015FEA010C02BF844650
:105890000146002043F0B64308BFA3F18053A3F5AF
:1058A0000003BCFA8CF2083AA3EBC25310DB01FAF6
:1058B00002FC634400FA02FCC2F12002BCF1004F7A
:1058C00020FA02F243EB020008BF20F0010070470B
:1058D00002F1200201FA02FCC2F1200250EA4C005F
:1058E00021FA02F243EB020008BF20EADC707047A5
:1058F0004FF0FF0C1CEAD0521EBF1CEAD15392EAB3
:105900000C0F93EA0C0F6FD01A4480EA010C40028E
:1059100018BF5FEA41211ED04FF0006343EA5010E8
:1059200043EA5111A0FB01310CF00040B1F5000F2A
:105930003EBF490041EAD3715B0040EA010062F1D9
:105940007F02FD2A1DD8B3F1004F40EBC25008BFC3
:1059500020F00100704790F0000F0CF0004C08BFE1
:1059600049024CEA502040EA51207F3AC2BFD2F1AE
:10597000FF0340EAC250704740F400004FF00003BC
:10598000013A5DDC12F1190FDCBF00F000407047F6
:10599000C2F10002410021FA02F1C2F1200200FA34
:1059A00002FC5FEA310040F1000053EA4C0308BFFB
:1059B00020EADC70704792F0000F00F0004C02BF4C
:1059C000400010F4000F013AF9D040EA0C0093F0C7
:1059D000000F01F0004C02BF490011F4000F013B21
:1059E000F9D041EA0C018FE70CEAD15392EA0C0F8F
:1059F00018BF93EA0C0F0AD030F0004C18BF31F0FA
:105A0000004CD8D180EA010000F00040704790F0CF
:105A1000000F17BF90F0004F084691F0000F91F073
:105A2000004F14D092EA0C0F01D142020FD193EA39
:105A30000C0F03D14B0218BF084608D180EA0100C1
:105A400000F0004040F0FE4040F40000704740F09D
:105A5000FE4040F4400070474FF0FF0C1CEAD0526B
:105A60001EBF1CEAD15392EA0C0F93EA0C0F69D0C7
:105A7000A2EB030280EA010C49024FEA402037D032
:105A80004FF0805343EA111143EA10130CF0004029
:105A90008B4238BF5B0042F17D024FF4000C8B4219
:105AA00024BF5B1A40EA0C00B3EB510F24BFA3EBF9
:105AB000510340EA5C00B3EB910F24BFA3EB9103C9
:105AC00040EA9C00B3EBD10F24BFA3EBD10340EA23
:105AD000DC001B0118BF5FEA1C1CE0D1FD2A3FF669
